:1000000082EC00F088EC00F000000401CEB705EFB0
:1000100000F0C1ECFFF0CEA705EF00F00401D281A3
:100020000401D06BD081C1EDFFF0CEA778EC00F0D9
:10003000D047C1EDFFF0CEA778EC00F0D047C1ED7E
:10004000FFF0CEA778EC00F0D047C1EDFFF0CEA7CF
:1000500078EC00F0D047C1EDFFF0CEA778EC00F0CF
:10006000D047C1EDFFF0CEA778EC00F0D047C1ED4E
:10007000FFF0CEA778EC00F0D047C1EDFFF0D291B1
:10008000CEA778EC00F00401D283D047CDEDFFF08D
:10009000CEA778EC00F0D047CDEDFFF0CEA778ECFE
:1000A00000F0D047CDEDFFF0CEA778EC00F0D047C0
:1000B000CDEDFFF0CEA778EC00F0D047CDEDFFF00E
:1000C000CEA778EC00F0D047CDEDFFF0CEA778ECCE
:1000D00000F0D047CDEDFFF0CEA778EC00F0D04790
:1000E000CDEDFFF0D293CEA778EC00F00EEF00F04C
:1000F000EAECFFF0CEB77DEF00F00401CEB77DEF64
:1001000000F012000001600EAD6F020EB16F120020
:100110000401CE6B006BC68701870401D26B206B94
:0E012000CA91CA930401D06B106BC86B120019
:020000040001F9
:10FF7E0000EF00F0FA0E016EF90E006E0000002E7A
:10FF8E00C5EFFFF0012EC3EFFFF01200020E026E5E
:10FF9E00FA0E016EF90E006E0000002ED3EFFFF088
:10FFAE00012ED1EFFFF0022ECFEFFFF01200F40E74
:10FFBE00036EF90E006E0000002EE2EFFFF0012E30
:10FFCE00E0EFFFF01200020E036E020E026EFA0E4A
:10FFDE00016EF90E006E0000002EF2EFFFF0012E02
:10FFEE00F0EFFFF0022EEEEFFFF0032EECEFFFF03E
:02FFFE001200EF
:020000040030CA
:10000000EC1D27C79FFFFFFFFFFFFFFFFFFFFFFF65
:10001000FFFFFFFFFFFFFFFFFFFFFFFFFFFFFFFFF0
:03002000FFFFFFE0
:00000001FF
