:0400000013EF00F00A
:0E000800B8A092EF00F0B890B4EF00F0100036
:10001800AFA012EF00F0AF903FEF00F010004AEDF4
:1000280000F050ED00F06CED00F076ED00F01DEF03
:1000380000F0B8B004EF00F0C376A3ED00F0C3768B
:10004800A3ED00F01DEF00F0C3860401000EFB6F66
:10005800010EFA6F034487EC00F0C06E97ED00F0D4
:10006800052E3CEF00F0062E43EF00F049EF00F0BC
:10007800032A28EF00F0050E066E000E036E0A0E26
:10008800056E000E036E28EF00F000000001600E00
:10009800AD6F020EB16F12000401D36BC387C38525
:1000A800286BCB97CB950401CE6B006BC687018775
:1000B8000401CF6B086BC78909890401D36B286BCE
:1000C800CB8509850401D06BC06B106BC86B12001F
:1000D8000201030E3E6F02010C0E3F6F02012A0E51
:1000E800406F1200D68A0301639168816C81D690B3
:1000F800AF909F80D692B490A480D694B890A880F0
:10010800D68ED68C1200F926810C420C240C180CC1
:10011800000C180C240C420C810C000CB4A00AEF43
:1001280000F01DEF00F0FA0E016EF90E006E0000EF
:10013800002E9BEF00F0012E99EF00F01200020E46
:10014800026EFA0E016EF90E006E0000002EA9EF85
:1001580000F0012EA7EF00F0022EA5EF00F012002C
:020000040030CA
:10000000EC1D27C79FFFFFFFFFFFFFFFFFFFFFFF65
:10001000FFFFFFFFFFFFFFFFFFFFFFFFFFFFFFFFF0
:03002000FFFFFFE0
:00000001FF
