:10000000C7ED01F0C0EC01F0CDEC01F009EC00F01F
:100010000000CEA71CEF01F0C990C190C992C19217
:10002000C994C194C996C196C998C198C99AC19AF0
:10003000C99CC18CC99EC18ECEA71CEF01F0C1ED39
:10004000FFF0C1EDFFF0C1EDFFF0C1EDFFF0C99091
:10005000C180C992C192C994C194C996C186C998F8
:10006000C188C99AC18AC99CC18CC99EC18ECEA7BC
:100070001CEF01F0C1EDFFF0C1EDFFF0C1EDFFF0AD
:10008000C1EDFFF0C990C190C992C192C994C184D9
:10009000C996C196C998C198C99AC18AC99CC19C80
:1000A000C99EC18ECEA71CEF01F0C1EDFFF0C1EDDE
:1000B000FFF0C1EDFFF0C1EDFFF0C990C190C99212
:1000C000C192C994C194C996C196C998C188C99A68
:1000D000C18AC99CC19CC99EC18ECEA71CEF01F0EC
:1000E000C1EDFFF0C1EDFFF0C1EDFFF0C1EDFFF09C
:1000F000C990C180C992C192C994C194C996C18660
:10010000C998C188C99AC19AC99CC19CC99EC18E0F
:10011000CEA71CEF01F0C1EDFFF0C1EDFFF0C1ED86
:10012000FFF0C1EDFFF0C990C190C992C182C9949E
:10013000C194C996C196C998C188C99AC19AC99CE7
:10014000C19CC99EC18ECEA71CEF01F0C1EDFFF08E
:10015000C1EDFFF0C1EDFFF0C1EDFFF0C990C1901E
:10016000C992C182C994C194C996C196C998C198CF
:10017000C99AC19AC99CC19CC99EC18ECEA71CEFC9
:1001800001F0C1EDFFF0C1EDFFF0C1EDFFF0C1EDF9
:10019000FFF0C990C190C992C192C994C194C99607
:1001A000C186C998C188C99AC18AC99CC18CC99E97
:1001B000C18ECEA71CEF01F0C1EDFFF0C1EDFFF045
:1001C000C1EDFFF0C1EDFFF0C990C190C992C1929D
:1001D000C994C194C996C196C998C198C99AC19A3F
:1001E000C99CC19CC99EC18ECEA71CEF01F0C1ED78
:1001F000FFF0C1EDFFF0C1EDFFF0C1EDFFF0C990E0
:10020000C190C992C192C994C194C996C186C99836
:10021000C188C99AC19AC99CC19CC99EC18ECEA7EA
:100220001CEF01F0C1EDFFF0C1EDFFF0C1EDFFF0FB
:10023000C1EDFFF009EF00F0C990C190C992C192E1
:10024000C994C194C996C186C998C198C99AC19ADE
:10025000C99CC19CC99EC18ECEB70CEF00F0C1ED08
:10026000FFF0C1EDFFF0C1EDFFF0C1EDFFF0C9906F
:10027000C180C992C182C994C194C996C196C998D6
:10028000C198C99AC19AC99CC19CC99EC18ECEB75A
:100290000CEF00F0C1EDFFF0C1EDFFF0C1EDFFF09C
:1002A000C1EDFFF0C990C190C992C182C994C184C7
:1002B000C996C196C998C198C99AC19AC99CC18C5E
:1002C000C99EC18ECEB70CEF00F0C1EDFFF0C1EDBD
:1002D000FFF0C1EDFFF0C1EDFFF0C990C180C99200
:1002E000C192C994C194C996C196C998C198C99A36
:1002F000C18AC99CC19CC99EC18ECEB70CEF00F0CB
:10030000C1EDFFF0C1EDFFF0C1EDFFF0C1EDFFF079
:10031000C990C190C992C182C984C184C996C1964D
:10032000C998C198C99AC19AC99CC19CC99EC18EDD
:10033000CEB70CEF00F0C1EDFFF0C1EDFFF0C1ED65
:10034000FFF0C1EDFFF0C990C190C992C182C9947C
:10035000C184C996C186C998C198C99AC19AC99CD5
:10036000C19CC99EC18FCEB70CEF00F0C1EDFFF06C
:10037000C1EDFFF0C1EDFFF0C1EDFFF009EF00F0BE
:100380000401CE6B006BC687BE8701871200000197
:10039000600EAD6F020EB16F12000401D16A186ACF
:0203A000120049
:020000040001F9
:10FF7E0000EF00F0FA0E016EF90E006E0000002E7A
:10FF8E00C5EFFFF0012EC3EFFFF01200020E026E5E
:10FF9E00FA0E016EF90E006E0000002ED3EFFFF088
:10FFAE00012ED1EFFFF0022ECFEFFFF01200F40E74
:10FFBE00036EF90E006E0000002EE2EFFFF0012E30
:10FFCE00E0EFFFF01200020E036E020E026EFA0E4A
:10FFDE00016EF90E006E0000002EF2EFFFF0012E02
:10FFEE00F0EFFFF0022EEEEFFFF0032EECEFFFF03E
:02FFFE001200EF
:020000040030CA
:10000000EC1D27C79FFFFFFFFFFFFFFFFFFFFFFF65
:10001000FFFFFFFFFFFFFFFFFFFFFFFFFFFFFFFFF0
:03002000FFFFFFE0
:00000001FF
